{
  "address": "0x5FbDB2315678afecb367f032d93F642f64180aa3",
  "abi": [
    {
      "inputs": [
        {
          "internalType": "address",
          "name": "_owner",
          "type": "address"
        },
        {
          "internalType": "uint8",
          "name": "_minorVersion",
          "type": "uint8"
        },
        {
          "internalType": "uint8",
          "name": "_majorVersion",
          "type": "uint8"
        }
      ],
      "stateMutability": "nonpayable",
      "type": "constructor"
    },
    {
      "anonymous": false,
      "inputs": [
        {
          "indexed": false,
          "internalType": "address",
          "name": "_address",
          "type": "address"
        },
        {
          "indexed": false,
          "internalType": "bytes32",
          "name": "publicKey",
          "type": "bytes32"
        }
      ],
      "name": "NewDevice",
      "type": "event"
    },
    {
      "anonymous": false,
      "inputs": [
        {
          "indexed": false,
          "internalType": "address",
          "name": "_address",
          "type": "address"
        }
      ],
      "name": "NewMember",
      "type": "event"
    },
    {
      "anonymous": false,
      "inputs": [
        {
          "indexed": false,
          "internalType": "enum Upgrade.upgradeType",
          "name": "_upgradeType",
          "type": "uint8"
        },
        {
          "indexed": false,
          "internalType": "bytes32",
          "name": "ipfsHash",
          "type": "bytes32"
        }
      ],
      "name": "NewUpgrade",
      "type": "event"
    },
    {
      "anonymous": false,
      "inputs": [
        {
          "indexed": true,
          "internalType": "address",
          "name": "previousOwner",
          "type": "address"
        },
        {
          "indexed": true,
          "internalType": "address",
          "name": "newOwner",
          "type": "address"
        }
      ],
      "name": "OwnershipTransferred",
      "type": "event"
    },
    {
      "inputs": [
        {
          "internalType": "address",
          "name": "_address",
          "type": "address"
        },
        {
          "internalType": "bytes32",
          "name": "publicKey",
          "type": "bytes32"
        }
      ],
      "name": "addDevice",
      "outputs": [],
      "stateMutability": "nonpayable",
      "type": "function"
    },
    {
      "inputs": [
        {
          "internalType": "address",
          "name": "_address",
          "type": "address"
        }
      ],
      "name": "addToAllowlist",
      "outputs": [],
      "stateMutability": "nonpayable",
      "type": "function"
    },
    {
      "inputs": [
        {
          "internalType": "enum Upgrade.upgradeType",
          "name": "_upgradeType",
          "type": "uint8"
        }
      ],
      "name": "getHash",
      "outputs": [
        {
          "internalType": "bytes32",
          "name": "",
          "type": "bytes32"
        }
      ],
      "stateMutability": "view",
      "type": "function"
    },
    {
      "inputs": [
        {
          "internalType": "enum Upgrade.upgradeType",
          "name": "_upgradeType",
          "type": "uint8"
        }
      ],
      "name": "getVersion",
      "outputs": [
        {
          "internalType": "uint8",
          "name": "",
          "type": "uint8"
        }
      ],
      "stateMutability": "view",
      "type": "function"
    },
    {
      "inputs": [
        {
          "internalType": "address",
          "name": "_address",
          "type": "address"
        }
      ],
      "name": "isAllowed",
      "outputs": [
        {
          "internalType": "bool",
          "name": "",
          "type": "bool"
        }
      ],
      "stateMutability": "view",
      "type": "function"
    },
    {
      "inputs": [
        {
          "internalType": "address",
          "name": "_address",
          "type": "address"
        }
      ],
      "name": "isDevice",
      "outputs": [
        {
          "internalType": "bool",
          "name": "",
          "type": "bool"
        }
      ],
      "stateMutability": "view",
      "type": "function"
    },
    {
      "inputs": [
        {
          "internalType": "enum Upgrade.upgradeType",
          "name": "_upgradeType",
          "type": "uint8"
        },
        {
          "internalType": "bytes32",
          "name": "_ipfsHash",
          "type": "bytes32"
        }
      ],
      "name": "newUpgrade",
      "outputs": [],
      "stateMutability": "nonpayable",
      "type": "function"
    },
    {
      "inputs": [],
      "name": "owner",
      "outputs": [
        {
          "internalType": "address",
          "name": "",
          "type": "address"
        }
      ],
      "stateMutability": "view",
      "type": "function"
    },
    {
      "inputs": [],
      "name": "renounceOwnership",
      "outputs": [],
      "stateMutability": "nonpayable",
      "type": "function"
    },
    {
      "inputs": [
        {
          "internalType": "address",
          "name": "newOwner",
          "type": "address"
        }
      ],
      "name": "transferOwnership",
      "outputs": [],
      "stateMutability": "nonpayable",
      "type": "function"
    }
  ],
  "transactionHash": "0xcf5671dc684ab2e389f4559926b001ecc1d5c2ab6ba2a0acfc11c433f5101a10",
  "args": [
    "0xf39Fd6e51aad88F6F4ce6aB8827279cffFb92266",
    0,
    0
  ],
  "solcInputHash": "e66727d3f066d820dfa9d3854ad93f28",
  "bytecode": "0x60806040523480156200001157600080fd5b50604051620019ad380380620019ad83398181016040528101906200003791906200056d565b6000620000496200034f60201b60201c565b9050806000806101000a81548173ffffffffffffffffffffffffffffffffffffffff021916908373ffffffffffffffffffffffffffffffffffffffff1602179055508073ffffffffffffffffffffffffffffffffffffffff16600073ffffffffffffffffffffffffffffffffffffffff167f8be0079c531659141344cd1fd0a4f28419497f9722a3daafe3b4186f6b6457e060405160405180910390a35082600160006101000a81548173ffffffffffffffffffffffffffffffffffffffff021916908373ffffffffffffffffffffffffffffffffffffffff1602179055508273ffffffffffffffffffffffffffffffffffffffff163373ffffffffffffffffffffffffffffffffffffffff161462000190576200018f600160009054906101000a900473ffffffffffffffffffffffffffffffffffffffff166200035760201b60201c565b5b8060046000806001811115620001cf577f4e487b7100000000000000000000000000000000000000000000000000000000600052602160045260246000fd5b600181111562000208577f4e487b7100000000000000000000000000000000000000000000000000000000600052602160045260246000fd5b815260200190815260200160002060006101000a81548160ff021916908360ff16021790555081600460006001808111156200026d577f4e487b7100000000000000000000000000000000000000000000000000000000600052602160045260246000fd5b6001811115620002a6577f4e487b7100000000000000000000000000000000000000000000000000000000600052602160045260246000fd5b815260200190815260200160002060006101000a81548160ff021916908360ff160217905550600160056000600160009054906101000a900473ffffffffffffffffffffffffffffffffffffffff1673ffffffffffffffffffffffffffffffffffffffff1673ffffffffffffffffffffffffffffffffffffffff16815260200190815260200160002060006101000a81548160ff02191690831515021790555050505062000737565b600033905090565b620003676200034f60201b60201c565b73ffffffffffffffffffffffffffffffffffffffff166200038d6200051660201b60201c565b73ffffffffffffffffffffffffffffffffffffffff1614620003e6576040517f08c379a0000000000000000000000000000000000000000000000000000000008152600401620003dd906200068f565b60405180910390fd5b600073ffffffffffffffffffffffffffffffffffffffff168173ffffffffffffffffffffffffffffffffffffffff16141562000459576040517f08c379a000000000000000000000000000000000000000000000000000000000815260040162000450906200066d565b60405180910390fd5b8073ffffffffffffffffffffffffffffffffffffffff1660008054906101000a900473ffffffffffffffffffffffffffffffffffffffff1673ffffffffffffffffffffffffffffffffffffffff167f8be0079c531659141344cd1fd0a4f28419497f9722a3daafe3b4186f6b6457e060405160405180910390a3806000806101000a81548173ffffffffffffffffffffffffffffffffffffffff021916908373ffffffffffffffffffffffffffffffffffffffff16021790555050565b60008060009054906101000a900473ffffffffffffffffffffffffffffffffffffffff16905090565b600081519050620005508162000703565b92915050565b60008151905062000567816200071d565b92915050565b6000806000606084860312156200058357600080fd5b600062000593868287016200053f565b9350506020620005a68682870162000556565b9250506040620005b98682870162000556565b9150509250925092565b6000620005d2602683620006b1565b91507f4f776e61626c653a206e6577206f776e657220697320746865207a65726f206160008301527f64647265737300000000000000000000000000000000000000000000000000006020830152604082019050919050565b60006200063a602083620006b1565b91507f4f776e61626c653a2063616c6c6572206973206e6f7420746865206f776e65726000830152602082019050919050565b600060208201905081810360008301526200068881620005c3565b9050919050565b60006020820190508181036000830152620006aa816200062b565b9050919050565b600082825260208201905092915050565b6000620006cf82620006d6565b9050919050565b600073ffffffffffffffffffffffffffffffffffffffff82169050919050565b600060ff82169050919050565b6200070e81620006c2565b81146200071a57600080fd5b50565b6200072881620006f6565b81146200073457600080fd5b50565b61126680620007476000396000f3fe608060405234801561001057600080fd5b506004361061009e5760003560e01c8063914b44d911610066578063914b44d914610147578063babcc53914610163578063e11d57ab14610193578063f2fde38b146101c3578063f8e86ece146101df5761009e565b80634ced11f9146100a357806360ef9f58146100d35780636dc7a35f146100ef578063715018a61461011f5780638da5cb5b14610129575b600080fd5b6100bd60048036038101906100b89190610daa565b6101fb565b6040516100ca91906110a3565b60405180910390f35b6100ed60048036038101906100e89190610dd3565b6102ae565b005b61010960048036038101906101049190610d45565b61054e565b6040516101169190610fc4565b60405180910390f35b6101276105a9565b005b6101316106e3565b60405161013e9190610f80565b60405180910390f35b610161600480360381019061015c9190610d6e565b61070c565b005b61017d60048036038101906101789190610d45565b61085b565b60405161018a9190610fc4565b60405180910390f35b6101ad60048036038101906101a89190610daa565b6108b1565b6040516101ba9190610fdf565b60405180910390f35b6101dd60048036038101906101d89190610d45565b6109fe565b005b6101f960048036038101906101f49190610d45565b610ba7565b005b60006001151561020a3361085b565b15151461021657600080fd5b60046000836001811115610253577f4e487b7100000000000000000000000000000000000000000000000000000000600052602160045260246000fd5b600181111561028b577f4e487b7100000000000000000000000000000000000000000000000000000000600052602160045260246000fd5b815260200190815260200160002060009054906101000a900460ff169050919050565b6102b6610cfe565b73ffffffffffffffffffffffffffffffffffffffff166102d46106e3565b73ffffffffffffffffffffffffffffffffffffffff161461032a576040517f08c379a000000000000000000000000000000000000000000000000000000000815260040161032190611063565b60405180910390fd5b600160046000846001811115610369577f4e487b7100000000000000000000000000000000000000000000000000000000600052602160045260246000fd5b60018111156103a1577f4e487b7100000000000000000000000000000000000000000000000000000000600052602160045260246000fd5b815260200190815260200160002060008282829054906101000a900460ff166103ca91906110cf565b92506101000a81548160ff021916908360ff1602179055508060036000846001811115610420577f4e487b7100000000000000000000000000000000000000000000000000000000600052602160045260246000fd5b6001811115610458577f4e487b7100000000000000000000000000000000000000000000000000000000600052602160045260246000fd5b81526020019081526020016000206000600460008660018111156104a5577f4e487b7100000000000000000000000000000000000000000000000000000000600052602160045260246000fd5b60018111156104dd577f4e487b7100000000000000000000000000000000000000000000000000000000600052602160045260246000fd5b815260200190815260200160002060009054906101000a900460ff1660ff1660ff168152602001908152602001600020819055507fc891fab420935b5444f6b32b722173640f8b97f4b55485ca53bb9215ab57a0308282604051610542929190610ffa565b60405180910390a15050565b600080600260008473ffffffffffffffffffffffffffffffffffffffff1673ffffffffffffffffffffffffffffffffffffffff168152602001908152602001600020541461059f57600190506105a4565b600090505b919050565b6105b1610cfe565b73ffffffffffffffffffffffffffffffffffffffff166105cf6106e3565b73ffffffffffffffffffffffffffffffffffffffff1614610625576040517f08c379a000000000000000000000000000000000000000000000000000000000815260040161061c90611063565b60405180910390fd5b600073ffffffffffffffffffffffffffffffffffffffff1660008054906101000a900473ffffffffffffffffffffffffffffffffffffffff1673ffffffffffffffffffffffffffffffffffffffff167f8be0079c531659141344cd1fd0a4f28419497f9722a3daafe3b4186f6b6457e060405160405180910390a360008060006101000a81548173ffffffffffffffffffffffffffffffffffffffff021916908373ffffffffffffffffffffffffffffffffffffffff160217905550565b60008060009054906101000a900473ffffffffffffffffffffffffffffffffffffffff16905090565b610714610cfe565b73ffffffffffffffffffffffffffffffffffffffff166107326106e3565b73ffffffffffffffffffffffffffffffffffffffff1614610788576040517f08c379a000000000000000000000000000000000000000000000000000000000815260040161077f90611063565b60405180910390fd5b6107918261054e565b156107d1576040517f08c379a00000000000000000000000000000000000000000000000000000000081526004016107c890611083565b60405180910390fd5b80600260008473ffffffffffffffffffffffffffffffffffffffff1673ffffffffffffffffffffffffffffffffffffffff1681526020019081526020016000208190555061081e82610ba7565b7f0d38976fd808988dcfd41eaacc15b6e8922bae80ed0841602da9701225c15200828260405161084f929190610f9b565b60405180910390a15050565b6000600560008373ffffffffffffffffffffffffffffffffffffffff1673ffffffffffffffffffffffffffffffffffffffff16815260200190815260200160002060009054906101000a900460ff169050919050565b6000600115156108c03361085b565b1515146108cc57600080fd5b60036000836001811115610909577f4e487b7100000000000000000000000000000000000000000000000000000000600052602160045260246000fd5b6001811115610941577f4e487b7100000000000000000000000000000000000000000000000000000000600052602160045260246000fd5b815260200190815260200160002060006004600085600181111561098e577f4e487b7100000000000000000000000000000000000000000000000000000000600052602160045260246000fd5b60018111156109c6577f4e487b7100000000000000000000000000000000000000000000000000000000600052602160045260246000fd5b815260200190815260200160002060009054906101000a900460ff1660ff1660ff168152602001908152602001600020549050919050565b610a06610cfe565b73ffffffffffffffffffffffffffffffffffffffff16610a246106e3565b73ffffffffffffffffffffffffffffffffffffffff1614610a7a576040517f08c379a0000000000000000000000000000000000000000000000000000000008152600401610a7190611063565b60405180910390fd5b600073ffffffffffffffffffffffffffffffffffffffff168173ffffffffffffffffffffffffffffffffffffffff161415610aea576040517f08c379a0000000000000000000000000000000000000000000000000000000008152600401610ae190611023565b60405180910390fd5b8073ffffffffffffffffffffffffffffffffffffffff1660008054906101000a900473ffffffffffffffffffffffffffffffffffffffff1673ffffffffffffffffffffffffffffffffffffffff167f8be0079c531659141344cd1fd0a4f28419497f9722a3daafe3b4186f6b6457e060405160405180910390a3806000806101000a81548173ffffffffffffffffffffffffffffffffffffffff021916908373ffffffffffffffffffffffffffffffffffffffff16021790555050565b610baf610cfe565b73ffffffffffffffffffffffffffffffffffffffff16610bcd6106e3565b73ffffffffffffffffffffffffffffffffffffffff1614610c23576040517f08c379a0000000000000000000000000000000000000000000000000000000008152600401610c1a90611063565b60405180910390fd5b610c2c8161085b565b15610c6c576040517f08c379a0000000000000000000000000000000000000000000000000000000008152600401610c6390611043565b60405180910390fd5b6001600560008373ffffffffffffffffffffffffffffffffffffffff1673ffffffffffffffffffffffffffffffffffffffff16815260200190815260200160002060006101000a81548160ff0219169083151502179055507fb4dcb6dd550f27b5917ebf674899ea7046ff91790c6f9f01431617ad39819db281604051610cf39190610f80565b60405180910390a150565b600033905090565b600081359050610d15816111f2565b92915050565b600081359050610d2a81611209565b92915050565b600081359050610d3f81611220565b92915050565b600060208284031215610d5757600080fd5b6000610d6584828501610d06565b91505092915050565b60008060408385031215610d8157600080fd5b6000610d8f85828601610d06565b9250506020610da085828601610d1b565b9150509250929050565b600060208284031215610dbc57600080fd5b6000610dca84828501610d30565b91505092915050565b60008060408385031215610de657600080fd5b6000610df485828601610d30565b9250506020610e0585828601610d1b565b9150509250929050565b610e1881611106565b82525050565b610e2781611118565b82525050565b610e3681611124565b82525050565b610e458161116e565b82525050565b6000610e586026836110be565b91507f4f776e61626c653a206e6577206f776e657220697320746865207a65726f206160008301527f64647265737300000000000000000000000000000000000000000000000000006020830152604082019050919050565b6000610ebe601c836110be565b91507f4164647265737320616c726561647920696e20616c6c6f774c697374000000006000830152602082019050919050565b6000610efe6020836110be565b91507f4f776e61626c653a2063616c6c6572206973206e6f7420746865206f776e65726000830152602082019050919050565b6000610f3e6015836110be565b91507f44657669636520616c72656164792065786973747300000000000000000000006000830152602082019050919050565b610f7a81611161565b82525050565b6000602082019050610f956000830184610e0f565b92915050565b6000604082019050610fb06000830185610e0f565b610fbd6020830184610e2d565b9392505050565b6000602082019050610fd96000830184610e1e565b92915050565b6000602082019050610ff46000830184610e2d565b92915050565b600060408201905061100f6000830185610e3c565b61101c6020830184610e2d565b9392505050565b6000602082019050818103600083015261103c81610e4b565b9050919050565b6000602082019050818103600083015261105c81610eb1565b9050919050565b6000602082019050818103600083015261107c81610ef1565b9050919050565b6000602082019050818103600083015261109c81610f31565b9050919050565b60006020820190506110b86000830184610f71565b92915050565b600082825260208201905092915050565b60006110da82611161565b91506110e583611161565b92508260ff038211156110fb576110fa611180565b5b828201905092915050565b600061111182611141565b9050919050565b60008115159050919050565b6000819050919050565b600081905061113c826111de565b919050565b600073ffffffffffffffffffffffffffffffffffffffff82169050919050565b600060ff82169050919050565b60006111798261112e565b9050919050565b7f4e487b7100000000000000000000000000000000000000000000000000000000600052601160045260246000fd5b7f4e487b7100000000000000000000000000000000000000000000000000000000600052602160045260246000fd5b600281106111ef576111ee6111af565b5b50565b6111fb81611106565b811461120657600080fd5b50565b61121281611124565b811461121d57600080fd5b50565b6002811061122d57600080fd5b5056fea2646970667358221220ed4dfe7236b62f2854f89597deba73de6a8185855a50fe35fff43f03d653c4fa64736f6c63430008000033",
  "devdoc": {
    "kind": "dev",
    "methods": {
      "owner()": {
        "details": "Returns the address of the current owner."
      },
      "renounceOwnership()": {
        "details": "Leaves the contract without owner. It will not be possible to call `onlyOwner` functions anymore. Can only be called by the current owner. NOTE: Renouncing ownership will leave the contract without an owner, thereby removing any functionality that is only available to the owner."
      },
      "transferOwnership(address)": {
        "details": "Transfers ownership of the contract to a new account (`newOwner`). Can only be called by the current owner."
      }
    },
    "version": 1
  },
  "userdoc": {
    "kind": "user",
    "methods": {},
    "version": 1
  },
  "storageLayout": {
    "storage": [
      {
        "astId": 7,
        "contract": "contracts/Upgrade.sol:Upgrade",
        "label": "_owner",
        "offset": 0,
        "slot": "0",
        "type": "t_address"
      },
      {
        "astId": 140,
        "contract": "contracts/Upgrade.sol:Upgrade",
        "label": "manager",
        "offset": 0,
        "slot": "1",
        "type": "t_address"
      },
      {
        "astId": 147,
        "contract": "contracts/Upgrade.sol:Upgrade",
        "label": "device",
        "offset": 0,
        "slot": "2",
        "type": "t_mapping(t_address,t_bytes32)"
      },
      {
        "astId": 154,
        "contract": "contracts/Upgrade.sol:Upgrade",
        "label": "version",
        "offset": 0,
        "slot": "3",
        "type": "t_mapping(t_enum(upgradeType)143,t_mapping(t_uint8,t_bytes32))"
      },
      {
        "astId": 159,
        "contract": "contracts/Upgrade.sol:Upgrade",
        "label": "currentVersion",
        "offset": 0,
        "slot": "4",
        "type": "t_mapping(t_enum(upgradeType)143,t_uint8)"
      },
      {
        "astId": 163,
        "contract": "contracts/Upgrade.sol:Upgrade",
        "label": "allowList",
        "offset": 0,
        "slot": "5",
        "type": "t_mapping(t_address,t_bool)"
      }
    ],
    "types": {
      "t_address": {
        "encoding": "inplace",
        "label": "address",
        "numberOfBytes": "20"
      },
      "t_bool": {
        "encoding": "inplace",
        "label": "bool",
        "numberOfBytes": "1"
      },
      "t_bytes32": {
        "encoding": "inplace",
        "label": "bytes32",
        "numberOfBytes": "32"
      },
      "t_enum(upgradeType)143": {
        "encoding": "inplace",
        "label": "enum Upgrade.upgradeType",
        "numberOfBytes": "1"
      },
      "t_mapping(t_address,t_bool)": {
        "encoding": "mapping",
        "key": "t_address",
        "label": "mapping(address => bool)",
        "numberOfBytes": "32",
        "value": "t_bool"
      },
      "t_mapping(t_address,t_bytes32)": {
        "encoding": "mapping",
        "key": "t_address",
        "label": "mapping(address => bytes32)",
        "numberOfBytes": "32",
        "value": "t_bytes32"
      },
      "t_mapping(t_enum(upgradeType)143,t_mapping(t_uint8,t_bytes32))": {
        "encoding": "mapping",
        "key": "t_enum(upgradeType)143",
        "label": "mapping(enum Upgrade.upgradeType => mapping(uint8 => bytes32))",
        "numberOfBytes": "32",
        "value": "t_mapping(t_uint8,t_bytes32)"
      },
      "t_mapping(t_enum(upgradeType)143,t_uint8)": {
        "encoding": "mapping",
        "key": "t_enum(upgradeType)143",
        "label": "mapping(enum Upgrade.upgradeType => uint8)",
        "numberOfBytes": "32",
        "value": "t_uint8"
      },
      "t_mapping(t_uint8,t_bytes32)": {
        "encoding": "mapping",
        "key": "t_uint8",
        "label": "mapping(uint8 => bytes32)",
        "numberOfBytes": "32",
        "value": "t_bytes32"
      },
      "t_uint8": {
        "encoding": "inplace",
        "label": "uint8",
        "numberOfBytes": "1"
      }
    }
  }
}