{
  "address": "0x5FbDB2315678afecb367f032d93F642f64180aa3",
  "abi": [
    {
      "inputs": [
        {
          "internalType": "address",
          "name": "_owner",
          "type": "address"
        },
        {
          "internalType": "uint8",
          "name": "_minorVersion",
          "type": "uint8"
        },
        {
          "internalType": "uint8",
          "name": "_majorVersion",
          "type": "uint8"
        },
        {
          "internalType": "bytes32",
          "name": "_deviceId",
          "type": "bytes32"
        }
      ],
      "stateMutability": "nonpayable",
      "type": "constructor"
    },
    {
      "anonymous": false,
      "inputs": [
        {
          "indexed": false,
          "internalType": "address",
          "name": "_address",
          "type": "address"
        },
        {
          "indexed": false,
          "internalType": "bytes32",
          "name": "publicKey",
          "type": "bytes32"
        }
      ],
      "name": "NewDevice",
      "type": "event"
    },
    {
      "anonymous": false,
      "inputs": [
        {
          "indexed": false,
          "internalType": "address",
          "name": "_address",
          "type": "address"
        }
      ],
      "name": "NewMember",
      "type": "event"
    },
    {
      "anonymous": false,
      "inputs": [
        {
          "indexed": false,
          "internalType": "enum Upgrade.upgradeType",
          "name": "_upgradeType",
          "type": "uint8"
        },
        {
          "indexed": false,
          "internalType": "bytes32",
          "name": "ipfsHash",
          "type": "bytes32"
        }
      ],
      "name": "NewUpgrade",
      "type": "event"
    },
    {
      "anonymous": false,
      "inputs": [
        {
          "indexed": true,
          "internalType": "address",
          "name": "previousOwner",
          "type": "address"
        },
        {
          "indexed": true,
          "internalType": "address",
          "name": "newOwner",
          "type": "address"
        }
      ],
      "name": "OwnershipTransferred",
      "type": "event"
    },
    {
      "inputs": [
        {
          "internalType": "address",
          "name": "_address",
          "type": "address"
        },
        {
          "internalType": "bytes32",
          "name": "publicKey",
          "type": "bytes32"
        }
      ],
      "name": "addDevice",
      "outputs": [],
      "stateMutability": "nonpayable",
      "type": "function"
    },
    {
      "inputs": [
        {
          "internalType": "address",
          "name": "_address",
          "type": "address"
        }
      ],
      "name": "addToAllowlist",
      "outputs": [],
      "stateMutability": "nonpayable",
      "type": "function"
    },
    {
      "inputs": [],
      "name": "deviceId",
      "outputs": [
        {
          "internalType": "bytes32",
          "name": "",
          "type": "bytes32"
        }
      ],
      "stateMutability": "view",
      "type": "function"
    },
    {
      "inputs": [
        {
          "internalType": "enum Upgrade.upgradeType",
          "name": "_upgradeType",
          "type": "uint8"
        },
        {
          "internalType": "uint8",
          "name": "_version",
          "type": "uint8"
        }
      ],
      "name": "getHash",
      "outputs": [
        {
          "internalType": "bytes32",
          "name": "",
          "type": "bytes32"
        }
      ],
      "stateMutability": "view",
      "type": "function"
    },
    {
      "inputs": [
        {
          "internalType": "enum Upgrade.upgradeType",
          "name": "_upgradeType",
          "type": "uint8"
        }
      ],
      "name": "getLatestHash",
      "outputs": [
        {
          "internalType": "bytes32",
          "name": "",
          "type": "bytes32"
        }
      ],
      "stateMutability": "view",
      "type": "function"
    },
    {
      "inputs": [
        {
          "internalType": "enum Upgrade.upgradeType",
          "name": "_upgradeType",
          "type": "uint8"
        }
      ],
      "name": "getVersion",
      "outputs": [
        {
          "internalType": "uint8",
          "name": "",
          "type": "uint8"
        }
      ],
      "stateMutability": "view",
      "type": "function"
    },
    {
      "inputs": [
        {
          "internalType": "address",
          "name": "_address",
          "type": "address"
        }
      ],
      "name": "isAllowed",
      "outputs": [
        {
          "internalType": "bool",
          "name": "",
          "type": "bool"
        }
      ],
      "stateMutability": "view",
      "type": "function"
    },
    {
      "inputs": [
        {
          "internalType": "address",
          "name": "_address",
          "type": "address"
        }
      ],
      "name": "isDevice",
      "outputs": [
        {
          "internalType": "bool",
          "name": "",
          "type": "bool"
        }
      ],
      "stateMutability": "view",
      "type": "function"
    },
    {
      "inputs": [
        {
          "internalType": "enum Upgrade.upgradeType",
          "name": "_upgradeType",
          "type": "uint8"
        },
        {
          "internalType": "bytes32",
          "name": "_ipfsHash",
          "type": "bytes32"
        }
      ],
      "name": "newUpgrade",
      "outputs": [],
      "stateMutability": "nonpayable",
      "type": "function"
    },
    {
      "inputs": [],
      "name": "owner",
      "outputs": [
        {
          "internalType": "address",
          "name": "",
          "type": "address"
        }
      ],
      "stateMutability": "view",
      "type": "function"
    },
    {
      "inputs": [],
      "name": "renounceOwnership",
      "outputs": [],
      "stateMutability": "nonpayable",
      "type": "function"
    },
    {
      "inputs": [
        {
          "internalType": "address",
          "name": "newOwner",
          "type": "address"
        }
      ],
      "name": "transferOwnership",
      "outputs": [],
      "stateMutability": "nonpayable",
      "type": "function"
    },
    {
      "inputs": [
        {
          "internalType": "enum Upgrade.upgradeType",
          "name": "",
          "type": "uint8"
        },
        {
          "internalType": "uint8",
          "name": "",
          "type": "uint8"
        }
      ],
      "name": "version",
      "outputs": [
        {
          "internalType": "bytes32",
          "name": "",
          "type": "bytes32"
        }
      ],
      "stateMutability": "view",
      "type": "function"
    }
  ],
  "transactionHash": "0x06296055f44db2b02c8056dcce4e3fc3e536b9b6cf88401bd928d7341f6726ad",
  "args": [
    "0xf39Fd6e51aad88F6F4ce6aB8827279cffFb92266",
    0,
    0,
    "0x746573745f646576696365000000000000000000000000000000000000000000"
  ],
  "solcInputHash": "8d8ddc28a94465b600a897e4e8f7239d",
  "bytecode": "0x60806040523480156200001157600080fd5b5060405162001c1638038062001c1683398181016040528101906200003791906200058c565b6000620000496200035760201b60201c565b9050806000806101000a81548173ffffffffffffffffffffffffffffffffffffffff021916908373ffffffffffffffffffffffffffffffffffffffff1602179055508073ffffffffffffffffffffffffffffffffffffffff16600073ffffffffffffffffffffffffffffffffffffffff167f8be0079c531659141344cd1fd0a4f28419497f9722a3daafe3b4186f6b6457e060405160405180910390a35083600160006101000a81548173ffffffffffffffffffffffffffffffffffffffff021916908373ffffffffffffffffffffffffffffffffffffffff1602179055508373ffffffffffffffffffffffffffffffffffffffff163373ffffffffffffffffffffffffffffffffffffffff161462000190576200018f600160009054906101000a900473ffffffffffffffffffffffffffffffffffffffff166200035f60201b60201c565b5b8160056000806001811115620001cf577f4e487b7100000000000000000000000000000000000000000000000000000000600052602160045260246000fd5b600181111562000208577f4e487b7100000000000000000000000000000000000000000000000000000000600052602160045260246000fd5b815260200190815260200160002060006101000a81548160ff021916908360ff16021790555082600560006001808111156200026d577f4e487b7100000000000000000000000000000000000000000000000000000000600052602160045260246000fd5b6001811115620002a6577f4e487b7100000000000000000000000000000000000000000000000000000000600052602160045260246000fd5b815260200190815260200160002060006101000a81548160ff021916908360ff160217905550600160066000600160009054906101000a900473ffffffffffffffffffffffffffffffffffffffff1673ffffffffffffffffffffffffffffffffffffffff1673ffffffffffffffffffffffffffffffffffffffff16815260200190815260200160002060006101000a81548160ff021916908315150217905550806002819055505050505062000790565b600033905090565b6200036f6200035760201b60201c565b73ffffffffffffffffffffffffffffffffffffffff16620003956200051e60201b60201c565b73ffffffffffffffffffffffffffffffffffffffff1614620003ee576040517f08c379a0000000000000000000000000000000000000000000000000000000008152600401620003e590620006c4565b60405180910390fd5b600073ffffffffffffffffffffffffffffffffffffffff168173ffffffffffffffffffffffffffffffffffffffff16141562000461576040517f08c379a00000000000000000000000000000000000000000000000000000000081526004016200045890620006a2565b60405180910390fd5b8073ffffffffffffffffffffffffffffffffffffffff1660008054906101000a900473ffffffffffffffffffffffffffffffffffffffff1673ffffffffffffffffffffffffffffffffffffffff167f8be0079c531659141344cd1fd0a4f28419497f9722a3daafe3b4186f6b6457e060405160405180910390a3806000806101000a81548173ffffffffffffffffffffffffffffffffffffffff021916908373ffffffffffffffffffffffffffffffffffffffff16021790555050565b60008060009054906101000a900473ffffffffffffffffffffffffffffffffffffffff16905090565b600081519050620005588162000742565b92915050565b6000815190506200056f816200075c565b92915050565b600081519050620005868162000776565b92915050565b60008060008060808587031215620005a357600080fd5b6000620005b38782880162000547565b9450506020620005c68782880162000575565b9350506040620005d98782880162000575565b9250506060620005ec878288016200055e565b91505092959194509250565b600062000607602683620006e6565b91507f4f776e61626c653a206e6577206f776e657220697320746865207a65726f206160008301527f64647265737300000000000000000000000000000000000000000000000000006020830152604082019050919050565b60006200066f602083620006e6565b91507f4f776e61626c653a2063616c6c6572206973206e6f7420746865206f776e65726000830152602082019050919050565b60006020820190508181036000830152620006bd81620005f8565b9050919050565b60006020820190508181036000830152620006df8162000660565b9050919050565b600082825260208201905092915050565b6000620007048262000715565b9050919050565b6000819050919050565b600073ffffffffffffffffffffffffffffffffffffffff82169050919050565b600060ff82169050919050565b6200074d81620006f7565b81146200075957600080fd5b50565b62000767816200070b565b81146200077357600080fd5b50565b620007818162000735565b81146200078d57600080fd5b50565b61147680620007a06000396000f3fe608060405234801561001057600080fd5b50600436106100cf5760003560e01c8063715018a61161008c578063babcc53911610066578063babcc53914610212578063e3fc372f14610242578063f2fde38b14610272578063f8e86ece1461028e576100cf565b8063715018a6146101ce5780638da5cb5b146101d8578063914b44d9146101f6576100cf565b80630ca5a550146100d45780631c7c61a51461010457806344cf9b31146101345780634ced11f91461015257806360ef9f58146101825780636dc7a35f1461019e575b600080fd5b6100ee60048036038101906100e99190610fcc565b6102aa565b6040516100fb91906111d8565b60405180910390f35b61011e60048036038101906101199190610f67565b6102cf565b60405161012b91906111d8565b60405180910390f35b61013c61038b565b60405161014991906111d8565b60405180910390f35b61016c60048036038101906101679190610f67565b610391565b604051610179919061129c565b60405180910390f35b61019c60048036038101906101979190610f90565b610444565b005b6101b860048036038101906101b39190610f02565b6106e4565b6040516101c591906111bd565b60405180910390f35b6101d661073f565b005b6101e0610879565b6040516101ed9190611179565b60405180910390f35b610210600480360381019061020b9190610f2b565b6108a2565b005b61022c60048036038101906102279190610f02565b6109f1565b60405161023991906111bd565b60405180910390f35b61025c60048036038101906102579190610fcc565b610a47565b60405161026991906111d8565b60405180910390f35b61028c60048036038101906102879190610f02565b610ba6565b005b6102a860048036038101906102a39190610f02565b610d4f565b005b6004602052816000526040600020602052806000526040600020600091509150505481565b6000600115156102de336109f1565b1515146102ea57600080fd5b610384826005600085600181111561032b577f4e487b7100000000000000000000000000000000000000000000000000000000600052602160045260246000fd5b6001811115610363577f4e487b7100000000000000000000000000000000000000000000000000000000600052602160045260246000fd5b815260200190815260200160002060009054906101000a900460ff16610a47565b9050919050565b60025481565b6000600115156103a0336109f1565b1515146103ac57600080fd5b600560008360018111156103e9577f4e487b7100000000000000000000000000000000000000000000000000000000600052602160045260246000fd5b6001811115610421577f4e487b7100000000000000000000000000000000000000000000000000000000600052602160045260246000fd5b815260200190815260200160002060009054906101000a900460ff169050919050565b61044c610ea6565b73ffffffffffffffffffffffffffffffffffffffff1661046a610879565b73ffffffffffffffffffffffffffffffffffffffff16146104c0576040517f08c379a00000000000000000000000000000000000000000000000000000000081526004016104b79061125c565b60405180910390fd5b6001600560008460018111156104ff577f4e487b7100000000000000000000000000000000000000000000000000000000600052602160045260246000fd5b6001811115610537577f4e487b7100000000000000000000000000000000000000000000000000000000600052602160045260246000fd5b815260200190815260200160002060008282829054906101000a900460ff1661056091906112c8565b92506101000a81548160ff021916908360ff16021790555080600460008460018111156105b6577f4e487b7100000000000000000000000000000000000000000000000000000000600052602160045260246000fd5b60018111156105ee577f4e487b7100000000000000000000000000000000000000000000000000000000600052602160045260246000fd5b815260200190815260200160002060006005600086600181111561063b577f4e487b7100000000000000000000000000000000000000000000000000000000600052602160045260246000fd5b6001811115610673577f4e487b7100000000000000000000000000000000000000000000000000000000600052602160045260246000fd5b815260200190815260200160002060009054906101000a900460ff1660ff1660ff168152602001908152602001600020819055507fc891fab420935b5444f6b32b722173640f8b97f4b55485ca53bb9215ab57a03082826040516106d89291906111f3565b60405180910390a15050565b600080600360008473ffffffffffffffffffffffffffffffffffffffff1673ffffffffffffffffffffffffffffffffffffffff1681526020019081526020016000205414610735576001905061073a565b600090505b919050565b610747610ea6565b73ffffffffffffffffffffffffffffffffffffffff16610765610879565b73ffffffffffffffffffffffffffffffffffffffff16146107bb576040517f08c379a00000000000000000000000000000000000000000000000000000000081526004016107b29061125c565b60405180910390fd5b600073ffffffffffffffffffffffffffffffffffffffff1660008054906101000a900473ffffffffffffffffffffffffffffffffffffffff1673ffffffffffffffffffffffffffffffffffffffff167f8be0079c531659141344cd1fd0a4f28419497f9722a3daafe3b4186f6b6457e060405160405180910390a360008060006101000a81548173ffffffffffffffffffffffffffffffffffffffff021916908373ffffffffffffffffffffffffffffffffffffffff160217905550565b60008060009054906101000a900473ffffffffffffffffffffffffffffffffffffffff16905090565b6108aa610ea6565b73ffffffffffffffffffffffffffffffffffffffff166108c8610879565b73ffffffffffffffffffffffffffffffffffffffff161461091e576040517f08c379a00000000000000000000000000000000000000000000000000000000081526004016109159061125c565b60405180910390fd5b610927826106e4565b15610967576040517f08c379a000000000000000000000000000000000000000000000000000000000815260040161095e9061127c565b60405180910390fd5b80600360008473ffffffffffffffffffffffffffffffffffffffff1673ffffffffffffffffffffffffffffffffffffffff168152602001908152602001600020819055506109b482610d4f565b7f0d38976fd808988dcfd41eaacc15b6e8922bae80ed0841602da9701225c1520082826040516109e5929190611194565b60405180910390a15050565b6000600660008373ffffffffffffffffffffffffffffffffffffffff1673ffffffffffffffffffffffffffffffffffffffff16815260200190815260200160002060009054906101000a900460ff169050919050565b600060011515610a56336109f1565b151514610a6257600080fd5b600060056000856001811115610aa1577f4e487b7100000000000000000000000000000000000000000000000000000000600052602160045260246000fd5b6001811115610ad9577f4e487b7100000000000000000000000000000000000000000000000000000000600052602160045260246000fd5b815260200190815260200160002060009054906101000a900460ff1660ff161415610b0357600080fd5b60046000846001811115610b40577f4e487b7100000000000000000000000000000000000000000000000000000000600052602160045260246000fd5b6001811115610b78577f4e487b7100000000000000000000000000000000000000000000000000000000600052602160045260246000fd5b815260200190815260200160002060008360ff1660ff16815260200190815260200160002054905092915050565b610bae610ea6565b73ffffffffffffffffffffffffffffffffffffffff16610bcc610879565b73ffffffffffffffffffffffffffffffffffffffff1614610c22576040517f08c379a0000000000000000000000000000000000000000000000000000000008152600401610c199061125c565b60405180910390fd5b600073ffffffffffffffffffffffffffffffffffffffff168173ffffffffffffffffffffffffffffffffffffffff161415610c92576040517f08c379a0000000000000000000000000000000000000000000000000000000008152600401610c899061121c565b60405180910390fd5b8073ffffffffffffffffffffffffffffffffffffffff1660008054906101000a900473ffffffffffffffffffffffffffffffffffffffff1673ffffffffffffffffffffffffffffffffffffffff167f8be0079c531659141344cd1fd0a4f28419497f9722a3daafe3b4186f6b6457e060405160405180910390a3806000806101000a81548173ffffffffffffffffffffffffffffffffffffffff021916908373ffffffffffffffffffffffffffffffffffffffff16021790555050565b610d57610ea6565b73ffffffffffffffffffffffffffffffffffffffff16610d75610879565b73ffffffffffffffffffffffffffffffffffffffff1614610dcb576040517f08c379a0000000000000000000000000000000000000000000000000000000008152600401610dc29061125c565b60405180910390fd5b610dd4816109f1565b15610e14576040517f08c379a0000000000000000000000000000000000000000000000000000000008152600401610e0b9061123c565b60405180910390fd5b6001600660008373ffffffffffffffffffffffffffffffffffffffff1673ffffffffffffffffffffffffffffffffffffffff16815260200190815260200160002060006101000a81548160ff0219169083151502179055507fb4dcb6dd550f27b5917ebf674899ea7046ff91790c6f9f01431617ad39819db281604051610e9b9190611179565b60405180910390a150565b600033905090565b600081359050610ebd816113eb565b92915050565b600081359050610ed281611402565b92915050565b600081359050610ee781611419565b92915050565b600081359050610efc81611429565b92915050565b600060208284031215610f1457600080fd5b6000610f2284828501610eae565b91505092915050565b60008060408385031215610f3e57600080fd5b6000610f4c85828601610eae565b9250506020610f5d85828601610ec3565b9150509250929050565b600060208284031215610f7957600080fd5b6000610f8784828501610ed8565b91505092915050565b60008060408385031215610fa357600080fd5b6000610fb185828601610ed8565b9250506020610fc285828601610ec3565b9150509250929050565b60008060408385031215610fdf57600080fd5b6000610fed85828601610ed8565b9250506020610ffe85828601610eed565b9150509250929050565b611011816112ff565b82525050565b61102081611311565b82525050565b61102f8161131d565b82525050565b61103e81611367565b82525050565b60006110516026836112b7565b91507f4f776e61626c653a206e6577206f776e657220697320746865207a65726f206160008301527f64647265737300000000000000000000000000000000000000000000000000006020830152604082019050919050565b60006110b7601c836112b7565b91507f4164647265737320616c726561647920696e20616c6c6f774c697374000000006000830152602082019050919050565b60006110f76020836112b7565b91507f4f776e61626c653a2063616c6c6572206973206e6f7420746865206f776e65726000830152602082019050919050565b60006111376015836112b7565b91507f44657669636520616c72656164792065786973747300000000000000000000006000830152602082019050919050565b6111738161135a565b82525050565b600060208201905061118e6000830184611008565b92915050565b60006040820190506111a96000830185611008565b6111b66020830184611026565b9392505050565b60006020820190506111d26000830184611017565b92915050565b60006020820190506111ed6000830184611026565b92915050565b60006040820190506112086000830185611035565b6112156020830184611026565b9392505050565b6000602082019050818103600083015261123581611044565b9050919050565b60006020820190508181036000830152611255816110aa565b9050919050565b60006020820190508181036000830152611275816110ea565b9050919050565b600060208201905081810360008301526112958161112a565b9050919050565b60006020820190506112b1600083018461116a565b92915050565b600082825260208201905092915050565b60006112d38261135a565b91506112de8361135a565b92508260ff038211156112f4576112f3611379565b5b828201905092915050565b600061130a8261133a565b9050919050565b60008115159050919050565b6000819050919050565b6000819050611335826113d7565b919050565b600073ffffffffffffffffffffffffffffffffffffffff82169050919050565b600060ff82169050919050565b600061137282611327565b9050919050565b7f4e487b7100000000000000000000000000000000000000000000000000000000600052601160045260246000fd5b7f4e487b7100000000000000000000000000000000000000000000000000000000600052602160045260246000fd5b600281106113e8576113e76113a8565b5b50565b6113f4816112ff565b81146113ff57600080fd5b50565b61140b8161131d565b811461141657600080fd5b50565b6002811061142657600080fd5b50565b6114328161135a565b811461143d57600080fd5b5056fea26469706673582212208197135b261d36b19806c2e73f06f2eb2bd3512a453c6babc24895bd9d862bcb64736f6c63430008000033",
  "devdoc": {
    "kind": "dev",
    "methods": {
      "owner()": {
        "details": "Returns the address of the current owner."
      },
      "renounceOwnership()": {
        "details": "Leaves the contract without owner. It will not be possible to call `onlyOwner` functions anymore. Can only be called by the current owner. NOTE: Renouncing ownership will leave the contract without an owner, thereby removing any functionality that is only available to the owner."
      },
      "transferOwnership(address)": {
        "details": "Transfers ownership of the contract to a new account (`newOwner`). Can only be called by the current owner."
      }
    },
    "version": 1
  },
  "userdoc": {
    "kind": "user",
    "methods": {},
    "version": 1
  },
  "storageLayout": {
    "storage": [
      {
        "astId": 7,
        "contract": "contracts/Upgrade.sol:Upgrade",
        "label": "_owner",
        "offset": 0,
        "slot": "0",
        "type": "t_address"
      },
      {
        "astId": 140,
        "contract": "contracts/Upgrade.sol:Upgrade",
        "label": "manager",
        "offset": 0,
        "slot": "1",
        "type": "t_address"
      },
      {
        "astId": 142,
        "contract": "contracts/Upgrade.sol:Upgrade",
        "label": "deviceId",
        "offset": 0,
        "slot": "2",
        "type": "t_bytes32"
      },
      {
        "astId": 149,
        "contract": "contracts/Upgrade.sol:Upgrade",
        "label": "device",
        "offset": 0,
        "slot": "3",
        "type": "t_mapping(t_address,t_bytes32)"
      },
      {
        "astId": 156,
        "contract": "contracts/Upgrade.sol:Upgrade",
        "label": "version",
        "offset": 0,
        "slot": "4",
        "type": "t_mapping(t_enum(upgradeType)145,t_mapping(t_uint8,t_bytes32))"
      },
      {
        "astId": 161,
        "contract": "contracts/Upgrade.sol:Upgrade",
        "label": "currentVersion",
        "offset": 0,
        "slot": "5",
        "type": "t_mapping(t_enum(upgradeType)145,t_uint8)"
      },
      {
        "astId": 165,
        "contract": "contracts/Upgrade.sol:Upgrade",
        "label": "allowList",
        "offset": 0,
        "slot": "6",
        "type": "t_mapping(t_address,t_bool)"
      }
    ],
    "types": {
      "t_address": {
        "encoding": "inplace",
        "label": "address",
        "numberOfBytes": "20"
      },
      "t_bool": {
        "encoding": "inplace",
        "label": "bool",
        "numberOfBytes": "1"
      },
      "t_bytes32": {
        "encoding": "inplace",
        "label": "bytes32",
        "numberOfBytes": "32"
      },
      "t_enum(upgradeType)145": {
        "encoding": "inplace",
        "label": "enum Upgrade.upgradeType",
        "numberOfBytes": "1"
      },
      "t_mapping(t_address,t_bool)": {
        "encoding": "mapping",
        "key": "t_address",
        "label": "mapping(address => bool)",
        "numberOfBytes": "32",
        "value": "t_bool"
      },
      "t_mapping(t_address,t_bytes32)": {
        "encoding": "mapping",
        "key": "t_address",
        "label": "mapping(address => bytes32)",
        "numberOfBytes": "32",
        "value": "t_bytes32"
      },
      "t_mapping(t_enum(upgradeType)145,t_mapping(t_uint8,t_bytes32))": {
        "encoding": "mapping",
        "key": "t_enum(upgradeType)145",
        "label": "mapping(enum Upgrade.upgradeType => mapping(uint8 => bytes32))",
        "numberOfBytes": "32",
        "value": "t_mapping(t_uint8,t_bytes32)"
      },
      "t_mapping(t_enum(upgradeType)145,t_uint8)": {
        "encoding": "mapping",
        "key": "t_enum(upgradeType)145",
        "label": "mapping(enum Upgrade.upgradeType => uint8)",
        "numberOfBytes": "32",
        "value": "t_uint8"
      },
      "t_mapping(t_uint8,t_bytes32)": {
        "encoding": "mapping",
        "key": "t_uint8",
        "label": "mapping(uint8 => bytes32)",
        "numberOfBytes": "32",
        "value": "t_bytes32"
      },
      "t_uint8": {
        "encoding": "inplace",
        "label": "uint8",
        "numberOfBytes": "1"
      }
    }
  }
}